:020000040800F2
:10000000500400204901000835060008B10200082C
:100010003106000891010008250C000800000000CE
:100020000000000000000000000000001D080008A3
:1000300095010008000000000707000809090008F2
:100040006301000863010008630100086301000800
:1000500063010008630100086301000863010008F0
:1000600063010008630100086301000863010008E0
:1000700063010008630100086301000863010008D0
:1000800063010008630100086301000863010008C0
:1000900063010008630100086301000863010008B0
:1000A00063010008630100086301000863010008A0
:1000B0006301000863010008630100086301000890
:1000C0006301000863010008630100086301000880
:1000D0006301000863010008630100086301000870
:1000E0006301000863010008630100086301000860
:1000F0006301000863010008630100086301000850
:10010000630100086301000863010008630100083F
:1001100063010008630100086D090008630100081D
:10012000630100086301000863010008630100081F
:10013000DFF810D000F01AF800480047310D000831
:10014000AFF300805004002006488047064800476F
:10015000FEE7FEE7FEE7FEE7FEE7FEE7FEE7FEE777
:10016000FEE7FEE70D09000831010008064C074DC7
:1001700006E0E06840F0010394E807009847103477
:10018000AC42F6D3FFF7D8FF480D0008680D000811
:1001900000BFFEE770472DE9F0410246002500262A
:1001A000002000230024002791F803C00CF00F0565
:1001B00091F803C00CF0100CBCF1000F03D091F8C3
:1001C00002C04CEA050591F800C0BCF1000F31D027
:1001D000146800202BE04FF0010C0CFA00F3B1F88A
:1001E00000C00CEA03069E4220D183004FF00F0CA2
:1001F0000CFA03F7BC4305FA03FC4CEA040491F83B
:1002000003C0BCF1280F06D14FF0010C0CFA00FC22
:10021000C2F814C00AE091F803C0BCF1480F05D140
:100220004FF0010C0CFA00FCC2F810C0401C08286A
:10023000D1D31460B1F800C0BCF1FF0F34DD5468B5
:1002400000202EE000F1080C4FF0010808FA0CF332
:10025000B1F800C00CEA03069E4221D183004FF0A2
:100260000F0C0CFA03F7BC4305FA03FC4CEA040438
:1002700091F803C0BCF1280F05D100F1080C08FA71
:100280000CF8C2F8148091F803C0BCF1480F07D1F4
:1002900000F1080C4FF0010808FA0CF8C2F81080C1
:1002A000401C0828CED35460BDE8F081016170473E
:1002B00000BFFEE710B50446102C49D2DFE804F079
:1002C000080C1014181C2024282C3034383C4044CE
:1002D00021A000F0F3FC3CE020A000F0EFFC38E0AF
:1002E0001FA000F0EBFC34E01EA000F0E7FC30E0C3
:1002F0001DA000F0E3FC2CE01CA000F0DFFC28E0D7
:100300001BA000F0DBFC24E01AA000F0D7FC20E0EA
:1003100019A000F0D3FC1CE018A000F0CFFC18E0FE
:1003200017A000F0CBFC14E016A000F0C7FC10E012
:1003300015A000F0C3FC0CE014A000F0BFFC08E026
:1003400013A000F0BBFC04E012A000F0B7FC00E03A
:1003500000BF00BF10BD00003000000031000000F1
:1003600032000000330000003400000035000000BF
:10037000360000003700000038000000390000009F
:1003800031300000313100003132000031330000E3
:10039000313400003135000070B5002423E0002521
:1003A0001DE0124800EB8400405D114901EB84011F
:1003B000495D884211D00E4800EB8400405D20B1B9
:1003C00005EB8401C8B2FFF775FF084800EB840015
:1003D000405D074901EB84014855681CC5B2042DF6
:1003E000DFDB601CC4B2042CD9DB70BD140000201C
:1003F000350000205E4909685E4A5F4B1B7812F8A1
:10040000232041EA42015B4A5B4B1B7802F8231030
:100410005A49D1F814215749574B1B7801EB8301F6
:10042000497842EA4101534A534B1B7802EB83025D
:1004300051705249D1F818114E4A4F4B1B7802EBBC
:100440008302927841EA42014A4A4B4B1B7802EB05
:10045000830291704949D1F81C214649464B1B78CB
:1004600001EB8301C97842EA4101424A424B1B78C1
:1004700002EB8302D170002022E03E493E4A12780E
:1004800001EB8201095C01F00F0131B900223C4906
:10049000394B1B7801EB83010A543649364A1278EE
:1004A00001EB8201095C01F00F010F2906D1012146
:1004B000334A314B1B7802EB83021154411CC8B202
:1004C0000428DADB2C490978491C2B4A11701146A3
:1004D000097801F0030111701146097831B1012941
:1004E00013D0022921D003293ED12EE00021204A39
:1004F000703211600121214AC2F884111C4A7832FD
:1005000011601E4AC2F88C112FE00121184A703286
:1005100011600021194AC2F884110121144A78326D
:100520001160164AC2F88C111FE00121104A703286
:100530001160124AC2F8841100210D4A783211600C
:1005400001210E4AC2F88C110FE00121084A7032D5
:1005500011600A4AC2F88411054A783211600021FC
:10056000064AC2F88C1100E000BF00BF70470000CF
:100570001081234224000020340000200080234208
:100580001400002008B50121802000F0CDF8F020F3
:10059000ADF8000048208DF8030069460848FFF7D1
:1005A000FAFD0F20ADF8000010208DF803000320A5
:1005B0008DF8020069460248FFF7EDFD08BD000016
:1005C000001C014010B500F0E1F900F089F810BD01
:1005D00008B50121082000F0A7F82020ADF80000A0
:1005E00010208DF8030003208DF8020069460F48A3
:1005F000FFF7D1FD0120ADF8000069460B48FFF779
:10060000CAFD0220ADF8000069460848FFF7C3FDA7
:1006100020210648FFF74AFE01210448FFF746FE65
:1006200002210248FFF742FE08BD0000000C014015
:1006300000BFFEE7704708B54FF4A06000F046F831
:1006400025208DF8000001208DF801008DF80200B2
:100650008DF80300684600F001F808BD70B5002170
:1006600000230F22C47804B3154C246804F4E0641A
:10067000C4F5E064210AC1F10403CA40447804FAD5
:1006800003F184781440214309010E4C0678A155EA
:10069000047804F01F050124AC4005786D11AD000D
:1006A00005F1E025C5F8004109E0047804F01F05D4
:1006B0000124AC40044D0678761145F8264070BD03
:1006C0000CED00E000E400E080E100E002490143BD
:1006D000024A1160704700000000FA050CED00E0CE
:1006E00008B54FF4A060FFF7F1FF36208DF8000049
:1006F00001208DF803008DF801008DF80200684696
:10070000FFF7ACFF08BD704729B1064AD269024322
:10071000044BDA6104E0034AD2698243014BDA6197
:10072000704700000010024029B1064A9269024356
:10073000044B9A6104E0034A92698243014B9A6137
:10074000704700000010024030B500210022002454
:1007500000232D4D6D6805F00C0121B1042905D051
:10076000082923D105E0294D056022E0274D0560C9
:100770001FE0254D6D6805F47012234D6D6805F47A
:100780008034022505EB92421CB9214D554305608A
:100790000BE01D4D6D6805F400351DB11C4D554332
:1007A000056002E0194D5543056002E0174D0560F4
:1007B00000BF00BF144D6D6805F0F0010909154D2B
:1007C0006B5C0568DD4045600F4D6D6805F4E061C8
:1007D000090A104D6B5C4568DD4085600A4D6D6807
:1007E00005F46051C90A0B4D6B5C4568DD40C5607E
:1007F000054D6D6805F44041890B074D6B5CC5687C
:10080000B5FBF3F5056130BD0010024000127A001F
:1008100000093D000000002010000020704710B5C6
:1008200000F002F810BD00000CB50020019000900F
:100830003348006840F480303149086000BF3048D8
:10084000006800F4003000900198401C019000986E
:1008500018B90198B0F5A06FF1D12948006800F4EB
:10086000003010B10120009001E0002000900098BD
:10087000012843D12348006840F010002149086056
:100880000846006820F0030008600846006840F051
:10089000020008601A4840681949486008464068E4
:1008A00048600846406840F48060486008464068F8
:1008B00020F47C1048600846406840F4E810486026
:1008C0000846006840F08070086000BF0C4800686F
:1008D00000F000700028F9D00948406820F00300BB
:1008E000074948600846406840F00200486000BF81
:1008F0000348406800F00C000828F9D10CBD000046
:1009000000100240002002407047000010B513485C
:10091000006840F00100114908600846406810492D
:1009200008400E494860084600680E4908400B49D7
:1009300008600846006820F4802008600846406887
:1009400020F4FE0048604FF41F008860FFF767FF47
:100950004FF000600449086010BD00000010024024
:100960000000FFF8FFFFF6FE08ED00E010B50121E2
:10097000054800F03DF828B10121034800F029F8AE
:10098000FFF738FD10BD0000001000400EB501213A
:100990001020FFF7B9FE41F28730ADF80400472080
:1009A000ADF800006946084800F03CF80122114605
:1009B000054800F02EF80121034800F00DF8012150
:1009C000014800F003F80EBD00100040CA43028247
:1009D0007047CA430282704721B1028842F0010287
:1009E000028004E002884FF6FE731A4002807047CE
:1009F00030B50246002000230024158A05EA0103D1
:100A0000958905EA010413B10CB1012000E0002032
:100A100030BD1AB183890B43838102E083898B4304
:100A200083817047002202881D4B98420ED01D4BD7
:100A300098420BD0B0F1804F08D01B4B984205D0A4
:100A40001A4B984202D01A4B984204D14FF68F733A
:100A50001A404B881A43174B984207D0164B9842BE
:100A600004D04FF6FF431A40CB881A4302808B888C
:100A700083850B8803850A4B98420BD0094B98421B
:100A800008D00E4B984205D00D4B984202D00D4B2A
:100A9000984201D10B7A03860123838270470000BC
:100AA000002C0140003401400004004000080040D8
:100AB000000C0040001000400014004000400140C5
:100AC000004401400048014021B1828942F40052B3
:100AD000828104E082894DF6FF731A40828170475B
:100AE00002460020B1F5007F00D100BF13880B4003
:100AF0000BB1012000E000207047F0B50346002450
:100B000000260025002040F66A17B94200D100BF38
:100B10001846C1F3421401F01F06012707FA06F533
:100B2000012C01D10C3004E0022C01D1103000E086
:100B300014301AB107682F43076002E00768AF431B
:100B40000760F0BD2DE9F04786B005460E4600244B
:100B5000A24600BFA1460027B08900B100BF2F46C2
:100B60002C8A4CF6FF700440F08804432C82AC8938
:100B70004EF6F3100440B088318908437189084368
:100B80000443AC81AC8A4FF6FF400440B089044373
:100B9000AC8201A8FFF7D8FD1F48874202D1DDF8DB
:100BA00010A001E0DDF80CA0A88900F4004040B1DD
:100BB0000AEBCA0000EB0A1031684900B0FBF1F8FB
:100BC00007E00AEBCA0000EB0A1031688900B0FBAD
:100BD000F1F86420B8FBF0F004012009642101FB66
:100BE0001089A88900F4004040B1322000EBC90010
:100BF000B0FBF1F000F00700044308E0322000EB06
:100C000009106421B0FBF1F000F00F0004432C81C7
:100C100006B0BDE8F087000000380140C1F30802CB
:100C20008280704700BFFEE700B585B00121042037
:100C3000FFF77AFD01218803FFF776FD4FF400707E
:100C4000ADF8100018208DF8130003208DF8120065
:100C500004A91848FFF79FFA4FF48060ADF8100020
:100C600004208DF8130004A91248FFF794FA4FF4FA
:100C7000E13000900020ADF80C000C20ADF80A0027
:100C80000020ADF80800ADF80600ADF80400694694
:100C90000948FFF757FFFFF7CEFC012240F225512C
:100CA0000548FFF72AFF01210348FFF70DFF05B0B4
:100CB00000BD00000008014000380140014A02491F
:100CC00000F013B80D0D00084800002002E008C82D
:100CD000121F08C1002AFAD170477047002001E0B6
:100CE00001C1121F002AFBD170472DE9F0411646C1
:100CF0000F460446002503E03946B047641C6D1CCE
:100D000020780028F8D12846BDE8F08170B5044667
:100D10000D46E1B20548FFF781FF00BF802103487F
:100D2000FFF7DEFE0028F9D0204670BD00380140F4
:100D3000FFF748FCFFF726FCFFF776FFFFF748FCBC
:100D400001E0FFF729FBFCE7680D00080000002028
:100D50004C000000CC0C0008B40D00084C00002032
:100D600004040000DC0C0008000000000102030481
:100D70000102030406070809020406080101010133
:100D8000010101010101010101010101FFFFFFFF5B
:100D9000FFFFFFFFFFFFFFFFFFFFFFFF000101015C
:100DA0000101010101010101010101010100000036
:040DB000000000003F
:0400000508000131BD
:00000001FF
